:020000040800F2
:10000000A85B0020D5020008A95A0008094F000883
:10001000155600085D260008116800080000000061
:10002000000000000000000000000000F15E000879
:100030008127000800000000815E0008ED5F0008D5
:10004000EF020008EF020008EF020008EF020008CC
:10005000EF020008EF020008EF020008EF020008BC
:10006000EF020008EF020008EF0200085127000825
:10007000EF020008EF020008EF020008EF0200089C
:10008000EF020008EF020008EF020008EF0200088C
:10009000EF020008EF020008EF020008EF0200087C
:1000A000EF020008EF020008EF020008EF0200086C
:1000B000EF020008EF020008EF020008EF0200085C
:1000C000EF020008EF020008EF020008EF0200084C
:1000D000EF02000805680008EF020008EF020008C0
:1000E000EF020008EF020008EF020008EF0200082C
:1000F000EF020008EF020008EF0200085D27000889
:10010000EF020008EF020008C9600008EF020008D3
:10011000EF0200085D620008D5600008EF020008E9
:10012000EF020008EF02000869270008EF0200084C
:10013000EF020008EF020008EF020008EF020008DB
:10014000EF020008EF020008EF020008EF020008CB
:10015000EF020008EF02000875270008EF02000810
:10016000EF020008EF020008EF020008EF020008AB
:10017000EF020008EF020008EF0200080000000094
:10018000EF020008EF02000800F002F800F092F819
:100190000AA090E8000C82448344AAF10107DA45E2
:1001A00001D100F087F8AFF2090EBAE80F0013F0A2
:1001B000010F18BFFB1A43F00103184798A2000073
:1001C000B8A20000103A24BF78C878C1FAD8520704
:1001D00024BF30C830C144BF04680C6070470000C1
:1001E0000023002400250026103A28BF78C1FBD840
:1001F000520728BF30C148BF0B6070476E2900F01E
:100200006383702900F0A784662909F0F3876529C4
:1002100009F0F087672909F0ED87612909F0EC877B
:1002200003681B0A28BF41F08001692900F0108390
:10023000642900F00D83752900F00A836F2900F00E
:100240003584782900F07384E92900F0CF83E4290C
:1002500000F0CC83F52900F0C983EF2900F0328447
:10026000F82900F072840368DB0928BF41F080019F
:10027000632901F08984732901F08E84E32901F058
:100280009984F32901F09E84002070471FB509F07E
:100290009CFF01F021F804000020002109F014FA6D
:1002A000401C60600020002109F0F8F9E0601FBDEB
:1002B00010B510BD01F0DEFE1146FFF7E7FF06F0B6
:1002C0007FFB02F07BF903B4FFF7F2FF03BC02F0FF
:1002D000BDF900000948804709480047FEE7FEE7EE
:1002E000FEE7FEE7FEE7FEE7FEE7FEE7FEE7FEE7E6
:1002F00004480549054A064B70470000B5600008F0
:1003000089010008A8550020A85B0020A8570020FC
:10031000A857002053EA020C00F069802DE9F04B49
:100320004FF00006002B1FBFB3FA83F503FA05F464
:1003300024FA05F65E4012BF1643B2FA82F502FABD
:1003400005F4C5F120051EBF22FA05FC44EA0C04A1
:10035000203556EA044C4FEA144418BF641C4FF091
:1003600000084FF00009904271EB030C39D30029CB
:1003700019BFB1FA81F701FA07F6B0FA80F700FA6F
:1003800007F6C7F120071EBF20FA07FC46EA0C0655
:100390002037B6FBF4FCA7EB0507103F07F01F0B57
:1003A000CBF120062CFA06F60CFA0BFB44BFB34641
:1003B0000026202FA4BF5E464FF0000B5BEA060C20
:1003C00008BF4FF0010B19EB0B0948EB0608ABFB1C
:1003D000027C06FB02CC0BFB03CCC01B71EB0C01B7
:1003E000C1E70B46024641464846BDE8F08B13B5CF
:1003F000084318BF4FF0FF300146AFF30080BDE85F
:100400001C4070477CB51D4616460C00009007D076
:100410004142A14202D32044401E01E04FF0FF3090
:10042000064B7B442A4669460190304600F065FA47
:10043000002C02D0009A002111707CBDFB0400004A
:100440000FB400B58DB010A9099000910B904FF03A
:10045000FF300A9000200C90064878440690064829
:1004600078446A4607900F9909A800F0D3FE0DB0B2
:100470005DF814FBD70D0000EF0D00002DE9FF5FC4
:100480001D464FF0FF3B91464FF000085F46D5E90F
:100490000146A96901987F1C8847296A82468847D6
:1004A0000028F6D1BAF1FF3F0CD0002E24F4C0642E
:1004B00019DD600614D5BAF12B0F09D0BAF12D0F52
:1004C0000ED103E0584604B0BDE8F09F44F48064C8
:1004D000A96901987F1C8847761E8246002E02DD9E
:1004E000BAF1300F03D0B9F1000F26D032E0A9697C
:1004F000761E01987F1C44F400748847002E8246C3
:1005000005DDBAF1780F06D0BAF1580F03D0B9F172
:10051000000F10D01EE0B9F1000F02D0B9F1100F9A
:1005200018D1A969761E01987F1C24F400748847AD
:100530008246102002E0082000E00A20814609E0FF
:10054000A96908FB0908761E01987F1C44F4007411
:1005500088478246002E05DD4946504600F0CAFB1A
:100560000028EDDAE96901988847A00502D46FF008
:100570000100A8E7E00725D1600613D5600502D584
:10058000C8F1000000E0404629680A1D2A60096899
:10059000220501D5087015E0220701D5088011E079
:1005A00008600FE02868011D29600068210502D558
:1005B00080F8008006E0210702D5A0F8008001E065
:1005C000C0F8008038467EE710B5431C02E010F802
:1005D000011B71B18107FAD14FF0013202C88C1AA8
:1005E0008C4314EAC211F9D0C01A0A0603D0C01E07
:1005F00010BDC01A10BD0A0401D0801E10BD090232
:10060000FCD0401E10BD40EA010370B59B072ED1FF
:100610004FF00136042A2AD308C810C99D1B9D43F8
:10062000121F15EAC61517D0D8B2E1B2401A50EA27
:10063000056110D198B2A1B2401A50EA05410AD121
:1006400023F07F4024F07F41401A50EA052102D177
:10065000180EA0EB146070BDA342DBD018BA21BA0B
:10066000884201D9012070BD4FF0FF3070BD0AB93A
:10067000002070BD10F8013B11F8014B63B1A3429B
:100680000AD1521E08D010F8013B11F8014B1BB1E2
:10069000A34201D1521EEDD1181B70BD032A40F2B6
:1006A000308010F0030C00F0158011F8013BBCF114
:1006B000020F624498BF11F801CB00F8013B38BF2C
:1006C00011F8013BA2F1040298BF00F801CB38BF3A
:1006D00000F8013B11F0030300F0CC85083AC0F0AC
:1006E000088051F8043B083A51F804CBA0E8081000
:1006F000F5E7121D5CBF51F8043B40F8043BAFF333
:100700000080D20724BF11F8013B11F801CB48BF8C
:1007100011F8012B24BF00F8013B00F801CB48BFC2
:1007200000F8012B704702F0FF0343EA032242EA7C
:10073000024200F002B84FF0000200B513469446A2
:100740009646203922BFA0E80C50A0E80C50B1F129
:100750002001BFF4F7AF090728BFA0E80C5048BF3D
:100760000CC05DF804EB890028BF40F8042B08BFDB
:10077000704748BF20F8022B11F0804F18BF00F8D7
:10078000012B704770477047704770B50446856904
:100790000068C10601D5302600E02026C00707D03A
:1007A00070BDD4E9012130469047206A401C206288
:1007B0006D1EF6D570BD70B5044685690078C0071A
:1007C00007D170BDD4E9012120209047206A401C48
:1007D00020626D1EF6D570BD09684A0501D540B28C
:1007E0007047C905FCD500B2704709684A0501D5B4
:1007F000C0B27047C905FCD580B2704770B50C46D1
:100800000546012A05D02878800600D5EA6900232C
:1008100002E0012305E05B1C934202D2E05C002869
:10082000F9D1A869E618C01AA861286A1844286294
:100830002846FFF7AAFF04E0D5E9012114F8010BCF
:100840009047B442F8D32846FFF7B5FF70BD0000CB
:100850002DE9F0410646002410687529314616A599
:1008600010D0FFF7B9FF002802DA404213A507E0D5
:1008700031688A0701D512A502E0490704D511A500
:10088000012401E0FFF7B1FF00210A2206F124074D
:1008900009E0B0FBF2FCB0FBF2F302FB1C003030CD
:1008A00078541846491C0028F3D123462A4630467E
:1008B000BDE8F04100F079BD000000002D0000000F
:1008C0002B0000002000000011680268006A530538
:1008D00001D508700AE0D30501D5088006E01306AB
:1008E00003D5C217C1E9000200E00860012070478B
:1008F00001694A1C02610878704700B58FB0CDE9E4
:1009000001310021059105497944CDE903101146D3
:10091000684600F02BF90FB000BD0000E5FFFFFFB7
:10092000D1E900239A4202D2531C0B601070704729
:100930002DE9FF5F15468A460446DFF8AC80F8448F
:100940000027D8E900103E46CDE9001010E03AF843
:1009500016106A4602A801F065FB411C07D02178F9
:10096000890603D5E269391891420DD80744761CEF
:100970002078800602D5E069B84205DDAE42E6DBAC
:100980003AF816000028E2D1A069C01BA0612046F9
:10099000FFF7FBFED8E90010CDE90010002017E0BA
:1009A0003AF818106A4602A801F03CFBB0F1FF3F8C
:1009B00081460BD000250DF1080B05E0D4E901219B
:1009C0001BF8050090476D1C4D45F7D308F1010059
:1009D000B0428046E4DB206A384420622046FFF7BC
:1009E000EAFEBDE8FF9F0000B69900002DE9F04146
:1009F0008046D21D22F007020025D2E90002F52927
:100A000015A614D0011E72F1000106DA0023D0EB06
:100A1000030063EB020211A608E0D8F800108B0770
:100A200001D50FA602E0490701D50EA60125114602
:100A3000002408F1240704E000F069FC30323A5544
:100A4000641C50EA0102F7D12B463246214640464B
:100A5000BDE8F04100F0A9BC000000002D0000003E
:100A60002B0000002000000030B4002100F124041D
:100A700008E002F00705D208303542EA4372DB088D
:100A80006554491C52EA0305F3D10468002310A2FF
:100A9000250708D504F020040C4304D0C4690123C1
:100AA0000CA2641EC46130BC00F07FBC10B50446CB
:100AB00021461068FFF799FE02462046BDE8104027
:100AC0000023D1E7D21D22F00701D1E90023CBE7B3
:100AD0000000000030000000F0B40D460188090558
:100AE00002D5214C7C4402E01F4C7C440E34002192
:100AF00000F1240608E002F00F071209E75D42EA60
:100B000003721B097754491C52EA0307F3D1027898
:100B10000023120704D5702D06D009B10223113429
:100B20002246F0BC00F041BC01231034F8E770B558
:100B300004460D4621461068FFF757FE0246294637
:100B40002046BDE870400023C6E7D21D22F007030F
:100B5000D3E90023C0E70368126843F02003036071
:100B60000823C3610023B7E7189800002DE9F05F60
:100B7000894604464FF0000ADFF874B1FB44C0F820
:100B800020A02046E1688847002874D0252806D098
:100B9000D4E901219047206A401C2062F1E7002639
:100BA0005F462046E16888472028054607DB312D4F
:100BB00005D2781910F8200C08B10643F1E7B00708
:100BC00001D526F00406C4F81CA00027C4F818A01C
:100BD0002A2D09D0284608F012FD38B304EB870807
:100BE000303DC8F8185019E059F8041B204604EBB2
:100BF00087029161E1688847012F054618D1E069B5
:100C0000002820DA26F020061DE0D8F8180000EBB6
:100C1000800005EB40003038C8F818002046E16835
:100C20008847054608F0EBFC0028EED1012F0AD0DA
:100C30002E2D08D12046E16888477F1C0546022FEB
:100C400046F02006C4DBA069002803DA404246F0E3
:100C50000106A061F00701D026F010066C2D0BD024
:100C6000682D09D04C2D39D06A2D35D0742D35D052
:100C70007A2D33D016E038E0E1682F4620468847C9
:100C8000B842054609D16C2F26D04FF48060E16848
:100C9000064320468847054604E06C2F1AD04FF4DF
:100CA000807006430DB3A5F14100192802D8203504
:100CB00046F400664A462946204626604E46FFF71F
:100CC0009DFA80B101280BD0F61D26F0070000F137
:100CD000080956E74020E4E78020D8E70020D6E75F
:100CE00006F104094DE7284652E7206ABDE8F09F67
:100CF000A89700003A2800D2303820F02002412A7C
:100D000001D3A2F13700884201D34FF0FF30704782
:100D10002DE9FF4F06468BB00878FF2806D0491C06
:100D20002D2805D000244FF0000908E000200CE039
:100D30000124F8E709EB8903491C00EB4309087813
:100D4000FF28F7D114B1C9F10000814610780025C1
:100D50002C46AA4629462D2801D02B2804D1521C06
:100D60002D2813D0002082468B461078FF280FD004
:100D70004FF0000C0A21521CA5FB017804FB0181F5
:100D800005FB0C11C5194BEB0104EEE70120EAE766
:100D9000002108464FF00000BAF1000F02D000EB2E
:100DA00080004008C0F38157012F01DD4FF0FF376D
:100DB0000E9955EA040009EB01080BD04FF0020927
:100DC00018F5FA7F16DA4FEACA70002F706008DD56
:100DD000012007E04FEACA70C6E900B00FB0BDE8D5
:100DE000F08F0020306000F07BFAC0F800901821EE
:100DF000084616E0B8F5FA7F18DD002F02DAF7484A
:100E0000784401E0F6487844D0E90010C6E90010C3
:100E100040EACA70706000F063FAC0F800901421D4
:100E200008460FB0BDE8F04F09F0E1B900210846CF
:100E30004FF00000B8F10001099002DAC7F100029A
:100E400000E03A4601DAC8F1000106A801F078F89E
:100E500006AB93E8070003AB83E8070044F23E00CB
:100E60005BEA04010090584604D144F21E012C466E
:100E70005D460091210C0904014306D10099240428
:100E800044EA15442D041039009104F07F410143D8
:100E900006D10099240244EA15642D020839009114
:100EA00004F07041014306D10099240144EA15740D
:100EB0002D01091F009104F04041014306D1009922
:100EC000A40044EA9574AD00891E009104F000412D
:100ED000084304D100986D196441401E00904FF002
:100EE00001033A466846B8F1000FCDE9014503A970
:100EF00002DD08F01CF901E008F0EFF8BAF1000F8C
:100F000004460D4601D084F00044002108464FF00D
:100F10000000099940F2FF77484010F00C0F07D10C
:100F200024F00040284303D0C4F30A50B84212D141
:100F300000F0D6F9C0F80090C4F30A50B8420AD1C4
:100F4000A8487844D0E90010C6E9001004F0004138
:100F50000843706042E7C6E900543FE72DE9FF4FC0
:100F60001F464FF0000A4FF0FF38454691B0D7E9D1
:100F70000146CDF83CA000F0AFF9C0680168405CC4
:100F80001090B96912986D1C8847396A8146884764
:100F90000028F6D1B9F1FF3F0AD0002E24F4D06426
:100FA00011DDB9F12B0F08D0B9F12D0F0BD102E0F3
:100FB000404615B013E744F48064B96912986D1C7B
:100FC0008847761E8146600504A901D52D2000E0E2
:100FD0002B20002E01F1010B0DF130088DF81000CF
:100FE0003FDDB9F1690F08D0B9F1490F05D0B9F16A
:100FF0006E0F02D0B9F14E0F1CD13B4601A80095EF
:1010000080E85002DDE912126FF0020009F05AF98F
:10101000C11CCED10EE0B96912986D1C884781467B
:101020001398761E44F4007405600F98401C002E3F
:101030000F9016DDB9F1300FEDD0B9F1780F02D075
:10104000B9F1580F0DD10F9801280AD13B46CDE9CF
:101050000054DDE91212001F029609F031F9C11C9B
:10106000A7D1109989453ED144F0800406E0139938
:10107000681CAAF1010A44F400740860B9696D1C87
:101080001298761E884730288146F0D02BE01099C0
:10109000894505D1200603D4761E44F0800418E06B
:1010A000484608F0ACFA08B3761E0DF123029345CA
:1010B000A9F1300044F4007406D20BF8010B2006AD
:1010C00007D5AAF1010003E0200602D40AF10100CD
:1010D0008246A00502D51399681C0860B969129868
:1010E0006D1C88478146002ED1DC53E0002E51DD77
:1010F000B9F1650F02D0B9F1450F4BD1A00549D523
:10110000B9696D1C1298761E24F440748847002E2D
:1011100081460CDD2B2804D0B9F12D0F07D144F402
:101120008074B96912986D1C8847761E8146E00567
:1011300001D52D2100E02B2108F8011BCDF80080FE
:1011400021E0761E0DF13901884544F400740CD27B
:10115000A9F1300010F0FF0088F8000002D10099DA
:10116000884509D908F1010806E0E00501D51E48C7
:1011700001E042F20F708246B96912986D1C8847EF
:10118000814613980560002E04DD484608F037FAC2
:101190000028D6D1F96912988847FF2053468BF86A
:1011A000000088F8000000200A900B9004AA0CA907
:1011B0000AA8FFF7ADFDA00502D46FF00100F8E624
:1011C00014F0240F12D0E0071CD13868DDE90A12B0
:1011D000031D3B600068C0E9001213E07896000030
:1011E0006A9600002E950000F1D8FFFF0AA9684614
:1011F00008F0F2F9E00705D13868009A011D39605E
:10120000006802602846D4E6026811441378016041
:1012100018467047D16005497944516104497944C1
:10122000116200211161114600F0D0BCEDFFFFFFFB
:1012300077010000426842B1016811F8013B23B117
:10124000521EC0E90012184670470121C160881E75
:10125000704742685AB1C368016843B983688B42DA
:1012600005D0491E521CC0E90012002070474FF003
:10127000FF30704710B5203AC0F00B80B1E818502D
:10128000A0E81850B1E81850A0E81850203ABFF470
:10129000F5AF5FEA027C24BFB1E81850A0E818500F
:1012A00044BF18C918C0BDE810405FEA827C24BF63
:1012B00051F8043B40F8043B08BF7047D20728BFF1
:1012C00031F8023B48BF11F8012B28BF20F8023B40
:1012D00048BF00F8012B704700487047E00000202D
:1012E00000487047C0000020B2F120030AD5C2F1C7
:1012F000200301FA02F120FA03F341EA030100FAA4
:1013000002F0704700FA03F14FF00000704730B56B
:10131000B0F10A0271F100034FEA900E4EEA817EAD
:10132000B0EB0E0061EB91014FEA101E4EEA017E18
:1013300010EB0E0041EB11114FEA102E4EEA016E38
:1013400010EB0E0041EB11214FEA104E4EEA014E18
:1013500010EB0E0041EB1141401841F100014FEA42
:10136000D00040EA41704FEAD1014FEA810444EADB
:10137000907410EB800544EB01046D1944EB0404F8
:10138000521BA3414FF0000348BF0A3200D530BDC5
:10139000401C41F1000130BD10B5044600F090FE44
:1013A0000068005D00F0010010BD2DE9F0470D461A
:1013B00099469246044600F124080168880604D53F
:1013C000E06921F01001216000E00120A84201DD68
:1013D000471B00E00027A1697A1902EB0900081AEF
:1013E000A0612078C00602D42046FFF7CEF900267F
:1013F00008E0D4E901211AF806009047206A401C51
:10140000761C20624E45F4DB2078C0060AD52046C3
:10141000FFF7BBF906E0D4E9012130209047206AAC
:10142000401C2062381EA7F10107F4DC07E0D4E974
:10143000012118F805009047206A401C2062281EF0
:10144000A5F10105F3DC2046FFF7B5F92078000689
:1014500002D50220BDE8F0870120FBE72DE9FF4F10
:101460000C461E464FF0FF378BB0D2E90001DDF885
:1014700060800A908A46C1F30A5505B93D460021AD
:1014800008464FF00000BAF1000F00F4400005DA02
:1014900000EB80004FF4400101EA50004FEA905900
:1014A000B9F1010F00DDB9460A9850EA4A000ED0A2
:1014B00044F61050A5F2FF3545432F14B8F1000F44
:1014C0001ED07542291E1EDDC9F100021CE0B8F1D4
:1014D000010F4FF0000001D0302103E0F24305E09E
:1014E0002154401CB042FBDB304600220021215435
:1014F0000B99C1F80880C1E900200FB0BDE8F08F5A
:10150000BD1B6D1CDEE74A4600DA694206A800F002
:1015100017FD06AB93E8070003AB83E807005046CE
:101520000A9907F007FB8DE80700A0F500501F3867
:1015300000900398002D0ADD42F21F014A4608443C
:10154000002303A90390684607F0B2FD09E0A0F567
:1015500000504A461F38002303A90390684607F04D
:10156000D1FD8DE807000004000C03D04FF0FF30E0
:10157000410800E01046B8F1000F03D000220092AD
:1015800015461EE0751E05D4FFF7C1FE30326255C8
:101590006D1EF9D5B3460122084302D000227F1CFC
:1015A00004E02078302801D100227F1E002A09970C
:1015B00084D01DE0112D07DAFFF7A9FE3032625505
:1015C0006D1C50EA0102F5D1084302D00098C8B161
:1015D0000EE00021681E05E0235C625C6354225427
:1015E000401E491C8142F7DBAB46A81B401E0990F8
:1015F000002004F80B000B98099AC0F80880C0E995
:10160000002B7AE711264FF0000857E72DE9F04F3D
:1016100088460446D21D22F0070191B0D1E90001AD
:10162000CDE90A0107F0BAFE02460B98C00F01D0BF
:101630002D2007E02068810701D52B2002E0202122
:1016400001EAC000032A099001D0072A05DB0346FE
:101650004146204600F048FD0BE12078800601D588
:10166000E06900E00620B8F1650F814606D0B8F1C8
:10167000660F18D0B8F1670F70D131E00020B9F1D2
:10168000110F009001DB112301E009F101030AAA07
:1016900001A90CA8FFF7E2FEDDE90C70002609F1B4
:1016A0000105834647E001204B4600904FF000477C
:1016B0000AAA01A90CA8FFF7D1FEDDE90DB00C992B
:1016C0005D46002610B909F101000D18B9EB0500BF
:1016D00003D4C0F1FF3609F10105A5EB09002BE0A9
:1016E000B9F1010F01DA4FF001090020B9F1110F32
:1016F0000090484601DD112300E003460AAA01A933
:101700000CA8FFF7ABFEDDE90C704D4600268346C2
:10171000207800070AD4AB4500DA5D4601A8012D08
:1017200004DD411911F8011C302907D04F4502DAB8
:1017300017F1040F04DA012082460FE06D1EEEE778
:10174000002F02DCED1B3E4403E0781CA84200DDC4
:101750007D1CB81B00F1010A4FF0004720780007FC
:1017600003D4AA4501DB4FF0FF3A0021B7F1004F47
:101770000DF143088DF8431024D002202B23002FB5
:1017800001DA7F422D230A21021EA0F1010000DCB4
:101790005FB197FBF1FC97FBF1F201FB1C7C174654
:1017A0000CF1300C08F801CDEEE7A8F10100037050
:1017B0002188090501D5452100E06521A0F1010836
:1017C00000F8011C09980FA9A1EB0807FF1D00B143
:1017D0000120411901EBEA70A1693844081A401E42
:1017E000A0612078C00602D42046FEF7CEFF0998FB
:1017F00028B1D4E901219047206A401C206220785A
:10180000C00622D52046FEF7C0FF1EE0002E04DBF6
:10181000B34502DD01A8805D00E03020D4E901215C
:101820009047206A401C2062761CAAF101005FEA02
:10183000000A0AD1FFF750FDC0680168405CD4E996
:1018400001219047206A401C2062281EA5F1010555
:10185000DCDC07E0D4E9012118F8010B9047206A8D
:10186000401C2062381EA7F10107F3DC2046FEF77A
:10187000A2FF032011B041E62DE9F04F04460D46CA
:10188000D21D22F0070089B0D0E9009748463946BA
:1018900007F084FD0246F80F01D02D2307E02068F1
:1018A000810701D52B2302E0202101EAC0038DF836
:1018B00020300BB1012000E00020032A824601D035
:1018C000072A04DB2946204600F00EFC3FE1207881
:1018D000800601D40D2500E0E569C7F30A560D2DF9
:1018E00049DA00214FEA175B08464FF00000002F4D
:1018F00000F4400007DA00EB80004FF4400100EBF9
:10190000D07001EA60008115012901DD4FF0FF313F
:1019100000224FEA850CBCF1180F06D31346ACF138
:1019200018004FF08052C24003E04FF4801323FAB6
:101930000CF30CF10C0CBCF1200F04D3ACF1200C17
:1019400009FA0CF001E007FA0CF000294FF000480A
:1019500001DD18B90FE00ED140450CD319EB020997
:101960005F4121B9404502D19F4329EA0209BBEBFF
:10197000175F00D0761C2088000502D57B4878448C
:1019800002E07A487844193808AA302302F80A306D
:10199000037C0AF10101002E0AF1020A53546A463F
:1019A00002DC4FF0300101E04FF031014FF001084F
:1019B0008DF8001002D0A6F2FF3603E059EA470185
:1019C00000D06B4E002D02DC2178090704D54FF0C2
:1019D00002082E218DF80110C44600210BE0C7F348
:1019E00003433F01C35C491C6D1E02F80830052902
:1019F00008F1010801DA002DF1DC00210CE000EB18
:101A00001973491C1B786D1E082902F808304FEA2B
:101A1000091908F1010801DA002DF0DC21688B06B4
:101A200002D516E0A8F10108E04505DD02EB080348
:101A300013F8013C302BF5D0B8F1000F09DD02EBB3
:101A4000080313F8013C2E2B03D1090701D4A8F198
:101A50000108002D05DD3E2102F808106D1E08F179
:101A60000108407C002E02F8080008F1010804DAA1
:101A70002D20764202F8080002E02B2002F8080030
:101A80000A214FF47A70864208F101080BDB96FBBD
:101A9000F0F3303302F8083096FBF0F308F1010858
:101AA00000FB136601E0642E0CDB642096FBF0F370
:101AB000303302F8083096FBF0F308F1010800FB20
:101AC000136601E00A2E06DB96FBF1F0303002F8D7
:101AD000080008F1010896FBF1F001FB10603030BE
:101AE00002F80800A16908F1010808EB050202EB01
:101AF0000A00081AA0612078C00602D42046FEF72A
:101B000044FE216A08AE01EB0A00206204E0D4E939
:101B1000012116F8010B9047BAF1010AF7D220789B
:101B2000C00602D52046FEF730FE6E4609E016F8E4
:101B3000010B3E280FD0D4E901219047206A401CB8
:101B40002062B8F10108F2D22046FEF734FE09B057
:101B50000320BDE8F08F206A2844206203E0D4E926
:101B60000121302090476D1EEBD3F8E7CA890000B1
:101B700002FCFFFF10B5436913B1AFF3008001E031
:101B8000FEF73CFE012010BD127800F124010A701E
:101B900000224A700122EDE711684FF0FF32E9E7B9
:101BA00010B5436913B1AFF3008001E0FEF7C0FE4A
:101BB000012010BD128800F1240182840022C28419
:101BC0000122EDE711684FF0FF32E9E72DE9F34F0D
:101BD0004FF0000A0C4656468DB001200C9001F1E2
:101BE0000C000B9062690B9801219047051E2DD0C7
:101BF000252D2CD0216A8847C0B162690B9801213C
:101C00009047216A88470028F7D16269411E0B98E6
:101C1000904700E0761CA1690D988847216A8847A3
:101C20000028F7D1E1690D988847DBE7A1690D9895
:101C30008847A842074601D1761CD3E7E1690D9891
:101C400088477F1C02D1BAF1000F6FD06BE1626947
:101C50000B9800273D46394690472A2804D16269EF
:101C60000B98012190470125DFF8D08262690B981B
:101C700001219047A0F130010A290AD24745E5DC4D
:101C800007EB870100EB4107303FDFD445F010053B
:101C9000ECE7E90601D46FF000476C280AD04C2825
:101CA00014D0682815D06A280DD074281CD07A2842
:101CB0001AD01DE062690B98012190476C2802D070
:101CC00045F0040514E045F002050DE045F020055F
:101CD0000AE062690B9801219047682802D045F01C
:101CE000080505E045F4006562690B9801219047FD
:101CF000C4E9015765283DD019DC58287AD00CDC9E
:101D0000452837D004DC252826D041289ED131E053
:101D100046282FD0472899D12CE05B2877D061281E
:101D200028D063287CD0642823D15AE0F6E06F28BD
:101D300048D008DC66281DD067281BD0692821D030
:101D40006E2816D127E0702845D0732868D07528F2
:101D500047D078280DD14DE0A1690D9888472528F6
:101D600005463FF469AFE1690D9888476D1C3FF463
:101D70006AAFD8E00D9923466A466FF0010008F07B
:101D80009DFAC5E045F0400023464FF00002606038
:101D9000A80736D43EE0E8077FF447AF2068011D6E
:101DA00021600068290501D506701BE7290701D5C8
:101DB000068017E7A90703D5F117C0E9006111E70D
:101DC00006600FE745F0400023464FF008026060D0
:101DD000A80716D41EE040F60E0125EA0100606057
:101DE00016E045F0400023464FF00A026060A80765
:101DF00007D40FE045F040006060A80708D52346EF
:101E000010220D996FF00100AFF3008080E007E031
:101E1000102223460D996FF00100FEF72FFB77E0AB
:101E20004FF0000963284F46C8464B46CB4602D0C8
:101E30005B2806D038E0E80601D40120A060012725
:101E400032E06269D4F80CB00B98012190475E280B
:101E500007D14FF0010949466269D4F80CB00B98DC
:101E60009047216939B900210A4603AB43F8212084
:101E7000491C0829FADBD8B3216949B308F10108E4
:101E800062690B98012190475D28F4D1B9F1000FE8
:101E900009D0002003A951F82020D24341F8202086
:101EA000401C0828F7DB03AB2069002820794FEAA3
:101EB00040701ED05B462246CDF80080CDE90197E8
:101EC0000D9900286FF0010020DAAFF300801FE0C9
:101ED000C11703AA00EBD1614B1121F01F0102EBE6
:101EE0008302411A13680120884003431360C7E747
:101EF00019E00D99224600286FF00100009702DAE0
:101F0000AFF3008004E0AFF3008001E0AFF30080A6
:101F100000280ADA401C06D10C9820B14FF0FF309F
:101F20000FB0BDE8F08F5046FAE7E90701D10AF19A
:101F3000010A064400200C9054E60000CCCCCC0CE6
:101F40002DE9F047814616468AB0354878440DC8D9
:101F50008DE80D0032487844801C03AC0DC884E83D
:101F60000D0041F69B300844372190FBF1F290FBC5
:101F7000F1F5A5F1800501FB12041B3C02D564427A
:101F8000012000E00020DFF898A080460027FA44F6
:101F9000AAF1BE0A0EE0E0070AD03246684607EB17
:101FA000470101230AEB810107F0ACF88DE8070037
:101FB00064107F1C002CEED1194F7F44AE3F19E016
:101FC000E80715D007EB04100DF1180A90E80E0091
:101FD0008AE80E00C068F04201D198190890324694
:101FE000012306A903A807F08DF803AB83E80700D7
:101FF0006D10641C002DE3D14FF001033246694699
:10200000B8F1000F03A802D007F052F801E007F082
:1020100079F8C9E90001C9F808200AB0BDE8F087DD
:102020008C8400002DE9F04116460C46054600F070
:1020300047F8036893F80101012807D0FF2C12D854
:10204000185D80B101202C70BDE8F081D3F8070144
:102050003246214603F20713C7182846BC46BDE89E
:10206000F041002360474FF0FF30EDE70048704734
:10207000C00000207546FFF7F9FFAE46050069462F
:10208000534620F00700854618B020B5FEF730F91A
:10209000BDE820404FF000064FF000074FF0000869
:1020A0004FF0000BAC46ACE8C009ACE8C009ACE8A6
:1020B000C009ACE8C00921F007018D467047000057
:1020C00010B5FFF709F9001D10BD00BFFD75000038
:1020D00010B5FFF705F9006810BD10B50446FFF70D
:1020E000FFF8046010BD00002DE9F0411F460446D2
:1020F00003260168072A01F4006004DB08B116A575
:1021000005E016A503E008B115A500E015A521F02E
:1021100010002060A069C01EA0610FB1401EA06128
:102120002046FEF732FB4FB1D4E9012138469047F3
:10213000206A401C2062C01C206206E0206AFAE788
:10214000D4E9012115F8010B9047761EF8D22046FC
:10215000FEF731FBBDE8F0814E414E006E616E002E
:10216000494E4600696E66002DE9FF4F1F464FF04D
:102170003C0987B04FF00042DDE9141001F101087D
:10218000DDF858A002EA40500390002005908346F5
:10219000054604460490B969461E08988847AAF186
:1021A000010A0290BAF1000F3BDD02982E2815D0EB
:1021B0001021FEF79FFD00282EDB4FF0010B059943
:1021C000014317D0B9F1000F0BDB4A46C117FFF7E7
:1021D0008BF805430C43A9F1040905E001200490A4
:1021E0000BE008B145F0010501200590049820B9E5
:1021F000361D02E0049800B1361FB969089808F14D
:1022000001088847BBF1000FAAF1010A0290C9D06A
:102210000999C1F80080C5E70298702808D05028B5
:1022200006D0F96908988847BBF1000F14D04FE039
:10223000002002900120BBF1000F049009D0B96981
:10224000089808F101088847AAF10109B9F1000FBF
:1022500007DCF969089888476FF001000BB0BDE80A
:10226000F08F2B2804D02D280CD14FF0FF30049094
:10227000B969089808F101088847A9F10109B9F17D
:10228000000FE6DD411CE4D00A21FEF733FD0028F3
:10229000DFDB029908F1010801EB810100EB41004D
:1022A0000290B969089888470A21FEF723FD099A28
:1022B000A9F10109B9F1000FC2F8008001DD002881
:1022C000E7DAF969089888470499029800FB0166E3
:1022D00055EA040004D004F04041090002D006E0B1
:1022E000039898E0A40044EA9574AD00B61E04F08B
:1022F0000041080002D16D196441761E159810F056
:10230000240F03D04FF00B095C4803E04FF028097D
:102310006FF07D008246564507DAAAEB0601894434
:10232000B9F1410F01DD4FF0410901200021A9F170
:102330000102FEF7D9FF024628400B462140084320
:1023400001D0012100E00021501E029143F1FF3134
:1023500028402140084301D0012000E000200299DC
:10236000834651EA0B014FD0002108464FF0000090
:10237000039900F4400039B100EB80004FF44001B4
:1023800000EBD07001EA60008015012802DD4FF0FB
:10239000FF3000E013D0401C36D0029860B3BBF190
:1023A000000F0CD14A4601200021FEF79DFF284076
:1023B0002140084301D0012000E00020E0B10120CD
:1023C0004A460021FEF790FF034640190A46614144
:1023D0002D1A8C4111D3B9F1400F09DD159810F079
:1023E000240F02D0AAF1340603E0AAF1170600E098
:1023F000761C00254FF0004406E05B1E42F1FF32E0
:1024000020EA030521EA0204CAF10100B04206DA1B
:102410001B49039808430190002000900EE0039AA6
:10242000C4F3D321E80A0A43164940EA44500A4358
:102430003146CDE90002684607F0D7F8159810F04C
:10244000240F0BD01598C00715D13868DDE90012AC
:10245000031D3B600068C0E900120CE002A8694659
:1024600007F0BAF81598C00705D13868029A011D1F
:102470003960006802604046F0E6000002FCFFFFA1
:102480000000F07F0000F03F2DE9FF4F92461D460F
:1024900085B04FF00041DDE9124BDDE914727F1E7B
:1024A00001EA4B50414940F0FF4940EA0108002150
:1024B00022F020004928049102D04E2828D04CE078
:1024C0003BA0012607C88DE80700A9690698641C8F
:1024D00088477F1E014606D41DF8060018B121F07A
:1024E000200181420BD0E96906988847032E34D039
:1024F000082E32D06FF0010009B0BDE8F08F761CD5
:10250000032E01D0082EE0D1601CCAF80000DCE7E1
:10251000A9690698641C88477F1E2AD420F02000F1
:10252000412826D1A9690698641C88477F1E20D4BB
:1025300020F020004E281CD1A9690698641C884709
:102540007F1E48F4002849F48009CAF8004001D4ED
:10255000282806D0E969069888475FEACB7012D030
:1025600022E0A9690698641C88477F1E01D40028D0
:1025700003DAE96906988847BCE72928F1D1641C89
:10258000CAF80040E9E71BF0240F07D02868049937
:10259000031D2B600068C0E9001805E02868021DD3
:1025A0002A600068C0F800902046A5E70000F07F90
:1025B000494E46494E4954590000000010B50446A2
:1025C000AFF300802046BDE81040FDF77CBE000060
:1025D00030B44FF0013C50F8042B51F8043BCCFAD6
:1025E00052F4D51A20D1FCB950F8042B51F8043B11
:1025F000CCFA52F4D51A17D1B4B950F8042B51F8CB
:10260000043BCCFA52F4D51A0ED16CB950F8042B15
:1026100051F8043BCCFA52F4D51A05D1002CDAD08B
:1026200030BC4FF00000704729BAB1FA81F111F0C7
:102630001801D1F120008440F2D1CA40CB4012F001
:10264000FF0213F0FF0330BCD01A70470149182075
:10265000ABBEFEE72600020070470000FEE7000068
:1026600040F2FC10C2F200000021C0E90011C0E9F4
:102670000211C0E90411C0E906117047FFF7F0FF2D
:1026800040F6A0149FED2B8AC2F20004B7EE080AB0
:102690002046F0EE480AB0EE481A03F049FB9FEDE1
:1026A000260ADFED260A204603F0B6FBB6EE000A46
:1026B000204603F077FB9FED220A204603F08CFBB7
:1026C0009FED200ADFED200A204603F077FB9FED07
:1026D0001F0A204603F0AEFB2046002103F088FBD2
:1026E00040F22C2840F21C2640F2342740F22425E8
:1026F000C2F20008C2F20006C2F20007C2F20005F0
:1027000098ED000A2046B1EE400AF0EE480A03F0C8
:10271000CFF9B1EE401A97ED000A2046F0EE480AD4
:1027200086ED001A03F0C4F90A2085ED000A05F0D1
:10273000B3F9E5E700000000000048C3000048438B
:102740000000C843000048C2000048420AD7233CAA
:1027500040F29850C2F2000000F0CEB840F2F850BB
:10276000C2F2000000F0C8B840F25860C2F20000A7
:1027700000F0C2B840F2B860C2F2000000F0BCB88D
:1027800070470000011D00F18402C0E942120021DF
:1027900080F81011A0F8041170470000B0B505468C
:1027A00090F81001144638B1D5F80C012246FDF717
:1027B00075FFA5F80441B0BDD5F808012246FDF724
:1027C0006DFF012085F810012868D5F80811224610
:1027D000BDE8B04002F024BB72B600BFFEE70000C7
:1027E000416909684A6A8284002048627047000093
:1027F00040F6581440F64475C2F20004C2F20005D7
:10280000204629460B2202F035FA40F23C26C2F25D
:10281000000602E0052005F03FF901204FF0FF31EE
:1028200004F0EAFE0028F5D0688869683080C6F8B0
:102830000210204629460B2202F01CFAEAE70000AB
:1028400070B5866D044600F01DFB94F83510022922
:102850002ED105462068216C026822F01602026023
:10286000426922F08002426109B9A16C19B1016884
:1028700021F008010160016821F001010160006898
:10288000C00708D000F0FEFA401B052818D82068C1
:102890000068C007F6D1E06D3F2101FA00F0B0609A
:1028A000012084F835000020002184F8341070BD28
:1028B000802060650120002184F8341070BD00BFC5
:1028C00020206065032084F83500002184F834104E
:1028D00070BD000090F83510022909D1052180F85B
:1028E00035100068016821F0010101600020704787
:1028F0008021416501207047F0B581B00446002079
:10290000009040F20800C2F200000268D4E91660AC
:1029100048F2B51337680821C1F64E338140394279
:10292000A2FB03250CD0226813685B0708D5136847
:1029300023F004031360B160616D41F00101616532
:1029400001218140394208D022685269120604D51B
:10295000B160616D41F0020161650421814039423D
:1029600008D022681268920704D5B160616D41F009
:102970000401616510218140394217D02068026846
:10298000120713D5B16002680168520308D4C90563
:1029900008D4016821F008010160216C21B905E02B
:1029A00008033FD4216C09B120468847E16D2020FF
:1029B00000FA01F23A4241D020680368DB063DD5B7
:1029C000B26094F835300268052B1BD122F0160254
:1029D0000260426922F080024261226C0AB9A26C54
:1029E0001AB1026822F0080202603F208840B060FD
:1029F000012084F83500216D0020002984F834007E
:102A000052D157E00168520310D4C90512D40168AD
:102A100021F010010160012084F83500002084F8C5
:102A2000340007E0A16C0029BED1BFE7080301D440
:102A3000616C00E0E16B09B120468847606DC8B366
:102A4000606DC0072ED0052084F835002068A90AE3
:102A5000026822F001020260009A01328A4200926A
:102A60001AD80268D20717D0009A01328A4200921F
:102A700012D80268D2070FD0009A01328A4200921F
:102A80000AD80268D20707D0009A01328A4200921F
:102A900002D80268D207DFD1012084F83500002077
:102AA00084F83400E16C29B1204601B0BDE8F04063
:102AB000084700BF01B0F0BD2DE9F041044600F029
:102AC000E1F9002C4ED00546022084F835000020A4
:102AD000216884F83400086820F001000860086864
:102AE000C00708D000F0CEF9401B05286CD821683B
:102AF0000868C007F6D1086848F23F02CFF210021A
:102B0000D4E90135024004F10C0E9EE8C1511A438C
:102B10002A4310433043384340EA0800626A40EADF
:102B20000C00042A40EA0E0320D1D4E90A5E206B8F
:102B30004EEA0302104308604869BEF1000F20F01E
:102B4000030040EA050040F0040C15D0B8F5005F22
:102B500042D0B8F1000F51D1022D52D0012D47D0F3
:102B600055B94EE00120BDE8F08100BF0B60486917
:102B700020F0070040EA020C6FF00F004AF6AB228B
:102B800050FA81F0CAF6AA22A0FB02231A094AF2DF
:102B90000C43C0F600039A5C40F2FF335F284FF00D
:102BA0003F00C1F814C021EA030100FA02F088BF17
:102BB0000431C4E9161288600023012200206365F5
:102BC00084F83520BDE8F0810322202303206365CB
:102BD00084F83520BDE8F081032DCDD801224023B3
:102BE0000120DFE805F0030E030500BFE7E700BFA3
:102BF000AEF1C070B0FA80F0400904E0032D04D3B8
:102C0000BAD1CEF300600028B6D0012240230120C3
:102C1000636584F83520BDE8F081000070B590F858
:102C200034C0BCF1010F46D04FF0010C80F834C025
:102C3000D0F858E090F835C0BCF1010F38D14FF012
:102C4000020C80F835C04FF0000CC0F854C0D0F82A
:102C500000C08468056CC06DDCF80060402C26F470
:102C60008026CCF80060CCF804300B4604BF134635
:102C70000A463F2101FA00F0CCF80830CCF80C20CD
:102C8000CEF80800DCF8000040F01600CCF8000098
:102C90002DB1DCF8000040F00800CCF80000DCF8B2
:102CA000000040F00100CCF80000002070BD00BF23
:102CB000002180F83410022070BD00002DE9F04F93
:102CC00082B000F13E4241F6004502F1FF77C4F2C6
:102CD000020508224FEAB726A84208BF0722072E9E
:102CE00038BF4FEAB7224FF0010A002400274FF007
:102CF0000008009208E000BF023708F10108202F09
:102D000004F1040400F0B4800E680AFA08F916EA27
:102D1000090FF1D0D1F804A00AF0030BABF10106C2
:102D2000012E17D80322866802FA07FECA6826EA2F
:102D30000E06BA40324382604268CAF3001522EAA6
:102D4000090205FA08F54FEA480C6FEA0E062A4315
:102D500042600BE00322BA40D643BBF1030FBC46EE
:102D600004D1BC464FF0030B22E000BFC2688D685F
:102D7000324005FA0CF52A43BBF1020FC26017D1AD
:102D80006FF0030202EA5802024404F01C030F250C
:102D9000D2F820E005FA03FA0D692EEA0A0E05FAC8
:102DA00003F343EA0E031362D1F804A00AF0030B05
:102DB00002680BFA0CF332401A431AF4403F4FF00A
:102DC000010A026098D0002243F644030192C4F243
:102DD00002031A6843F6004E42F480421A601A68F1
:102DE000C4F2010E02F480420192019A28F003021B
:102DF0004FF6084C7244CFF6FF7C52F80C3004F0CA
:102E00000C060F25B540AB43009D05FA06F633438B
:102E100042F80C30DEF808204B6842EA090643F617
:102E20000C4CDD0258BF22EA0906CEF80860C4F255
:102E3000010CDCF800209D0242EA090658BF22EA94
:102E40000906CCF80060DEF804209D0342EA09067A
:102E500058BF22EA0906CEF80460DEF80020DB0342
:102E600042EA090658BF22EA0906CEF8006043E7A5
:102E700002B0BDE8F08F0000002A08BF090481619C
:102E80007047000044F6A860C2F200000068704776
:102E900040F2000044F6A861C2F20000C2F2000154
:102EA00000780A68104408607047000080B543F657
:102EB0000040C4F20200016841F400710160016841
:102EC00041F480610160016841F480710160032078
:102ED00000F0C4F80F2000F005F800F061F80020C1
:102EE00080BD000070B586B0002543F64001019515
:102EF000C4F202010A68044642F010020A6009683E
:102F000001A801F0100101910199694600F066F9EC
:102F1000049E002E18BF012600F080F94DF6836153
:102F2000B040C4F21B31A0FB01014FF0FF3000EBB9
:102F3000914140F6800041F20002C2F20000C4F26A
:102F4000000240F2E733C0E90021C0E90253056105
:102F5000856100F003FC054610B1284606B070BD3F
:102F600040F68000C2F2000000F04CFC054600284C
:102F7000F3D1362000F036F80F2C0DD8362021463C
:102F80000022002500F03EF840F20400C2F20000EA
:102F90000460284606B070BD0125284606B070BD05
:102FA00082B0002043F640010190C4F202014A6859
:102FB00042F480424A604A6802F480420192019AD7
:102FC00000900868002240F08050086008680F21D7
:102FD00000F08050009000986FF0010002B000F007
:102FE00011B80000002848BF704700F01F010122FF
:102FF00002FA01F14EF200124009CEF2000242F84C
:103000002010704710B54EF60C5CCEF2000CDCF8C8
:103010000030C3F3022E8EF00704042C28BF0424D2
:10302000BEF103034FF0FF3E0EFA04F438BF002355
:10303000A14399400EFA03F39A43114300F00F02A3
:10304000043A624409010C3200F16043B0F1FF3FE1
:10305000C8BF03F56442117010BD00004EF60C515C
:10306000CEF200010A684FF6FF031A4060F30A220D
:1030700042F0806040F0FD70086070472DE9F0413B
:10308000002800F08B8043F60808C4F202080446CA
:10309000D8F8F8030D4600F00700884207D288F8F8
:1030A000F853D8F8F80300F00700A84276D120685A
:1030B000810717D5410705D5D8F8001041F4E05134
:1030C000C8F80010010705D5D8F8001041F4604198
:1030D000C8F80010D8F80010A26821F0F0011143E0
:1030E000C8F80010C0073FD1D8F8F80300F0070077
:1030F000A84207D988F8F853D8F8F80300F0070079
:10310000A8424BD12068410707D5D8F80010E268E3
:1031100021F4E0511143C8F80010000708D5D8F891
:103120000000216920F4604040EAC100C8F80000B6
:1031300000F09CF8D8F800104AF2F432C1F3031101
:10314000C0F60002515C40F2080220FA01F140F2A0
:103150000400C2F200000068C2F200021160FFF732
:10316000C1FE0020BDE8F0816068811E022907D2FF
:1031700058F8081C89015CBF0120BDE8F08111E00E
:10318000012807D158F8081C89035CBF0120BDE85D
:10319000F08107E058F8081C890703D40120BDE836
:1031A000F08100BFD8F8001021F003010843C8F8EF
:1031B0000000FFF767FE064641F28837D8F80000A6
:1031C000616800F00C00B0EB810F8DD0FFF75AFE64
:1031D000801BB842F2D90320BDE8F0810F220260C3
:1031E00043F60802C4F20202136803F003034360CB
:1031F000136803F0F0038360136803F4E053C360C3
:10320000D2F800C04FF4E05303EADC030361D2F8C4
:10321000F80300F0070008607047000040F2080063
:1032200043F60801C2F20000C4F202010068096816
:103230004AF20442C1F38221C0F60002515CC84048
:103240007047000040F2080043F60801C2F2000097
:10325000C4F20201006809684AF20442C1F3423133
:10326000C0F60002515CC8407047000010B543F63C
:103270000404C4F20204606800F00C0008280BD0BB
:10328000042819BF42F20040C0F2F40047F64000A3
:10329000C0F27D1010BD00BF20682168236849027C
:1032A00047F64001C0F27D1100F03F02C3F38810E1
:1032B0005CBF42F20041C0F2F401A1FB0001002317
:1032C000FDF728F821680222C1F3014102EB410118
:1032D000B0FBF1F010BD00002DE9F04182B00028F4
:1032E0006AD00446007843F60006C007C4F202061E
:1032F0000BD0B06800F00C00042840F0A1803068CA
:10330000800302D56068002856D0207880071AD53F
:10331000B06810F00C0F09D0B06800F00C0008285D
:1033200040F0A8807068400200F1A48030688007F7
:1033300002D5E06801283FD13068216920F0F8000B
:1033400040EAC10030602078000739D42078400777
:103350004ED4A5695DB3B06800F00C00082840F0B9
:10336000BD80012D28D07068E16900F480028A4296
:1033700022D1216A00F03F028A421DD147F6C07176
:10338000626A0140B1EB821F16D1A26A0023CFF618
:10339000FF7303EBC23200F440316FF30F0291422E
:1033A0000AD1E16A00F07060B0EB016F04D1002037
:1033B00002B0BDE8F08100BF012002B0BDE8F0819D
:1033C0006069002840F20000C4F2472076D0012155
:1033D000C0F8801EFFF756FD054600BF706F8007DE
:1033E000B4D4FFF74FFD401B0228F7D9DDE000BF42
:1033F000306C10F080580AD100200190306C40F001
:1034000080503064306C00F080500190019847F299
:103410000007C4F200073868C00541D4386840F49A
:1034200080703860FFF72EFD054600BF3868C00584
:1034300036D4FFF727FD401B0228F7D9B5E000BFBF
:10344000B06800F00C00082803D1706840023FF516
:1034500056AF6068B0F5803F07D0B0F5A02F40F0C0
:103460008D80306840F480203060306840F48030D7
:1034700030608DE0E068002852D00020C4F2472080
:1034800001210160FFF7FEFC054600BF30688007A0
:103490003FF552AFFFF7F6FC401B0228F6D984E057
:1034A000A068012805D005284ED1306F40F00400F7
:1034B0003067306F40F0010030674FE00021C0F806
:1034C000801EFFF7DFFC0546706F80077FF53EAF7B
:1034D000FFF7D8FC401B0228F6D966E00027C4F2AB
:1034E000472700203866FFF7CDFC022D05460BD19B
:1034F000306880015ED5FFF7C5FC401B02284FF005
:103500000300F5D954E700BF306880017FF54FAF65
:10351000FFF7B8FC401B02284FF00300F4D947E73F
:103520000020C4F2472000210160FFF7ABFC0546F4
:10353000306880077FF507AFFFF7A4FC401B022827
:103540004FF00300F4D933E7316F002821F0010177
:103550003167316F21F0040131674DD0FFF792FCE4
:10356000054641F2883700BF306F800756D4FFF719
:1035700089FC401BB842F7D917E000BF316800282A
:1035800021F480313160316821F4802131604FD0E5
:10359000FFF778FC054600BF306880033FF5B5AE05
:1035A000FFF770FC401B6428F6D9032002B0BDE889
:1035B000F08100BF04F11C052FCD08430021CFF698
:1035C000FF7140EA821001EBC3316FF30F0140EA53
:1035D00005600843706001203866FFF753FC04461D
:1035E000306880013FF5E3AEFFF74CFC001B02287A
:1035F0004FF00300F4D9DBE6FFF744FC054641F247
:10360000883700BF306F800708D5FFF73BFC401BB1
:10361000B8424FF00300F5D9CAE600BFB8F1000F79
:103620007FF497AE306C20F08050306491E600BF9C
:10363000FFF728FC054600BF306880037FF565AEC4
:10364000FFF720FC401B64284FF00300F4D9AFE6DD
:103650007047000070470000B0B590F83C20012A88
:1036600004BF0220B0BD01F108053CCDD1E900CE78
:1036700023F47C5322F470521A432EF4F0431A437D
:103680002CF4E0431A4324F4C0431A432A43C96983
:1036900022F48042036811435964002180F83C10F1
:1036A0000846B0BD10B590F83C20012A4FF0020248
:1036B00051D080F83D200268D2F804E0D2F808C06A
:1036C0000C682EF07003234341F2FF74C4F200042F
:1036D000A24253600EDC40F2FF73C4F200039A4230
:1036E00016DCB2F1804F2BD040F20043C4F200034D
:1036F00024E000BF40F2FF33C4F201039A4213DC1E
:1037000041F60003C4F200039A4219D0002313E0EB
:1037100040F60003C4F200039A4211D040F6004381
:10372000C4F200030AE000BF44F20003C4F2010344
:103730009A4205D040F20043C4F201039A4204D1F8
:1037400049682CF08003194391600121002280F820
:103750003D1080F83C20104610BD0000002804BF3A
:103760000120704710B5044690F83D0028B90020AC
:1037700084F83C00204600F01FF8022084F83D0049
:103780002068211D02F0ACFC012084F8460084F87A
:103790003E0084F83F0084F8400084F8410084F83B
:1037A000420084F8430084F8440084F8450084F81B
:1037B0003D00002010BD000080B582B0006840F6DA
:1037C0000041C4F2000188421CBF02B080BD00204D
:1037D000019043F64000C4F202000168002241F06B
:1037E000080101600068052100F0080001900198BF
:1037F0003220FFF707FC322002B0BDE88040FFF71F
:10380000F1BB000090F83D1001291CBF012070475A
:10381000022180F83D10006841F2FF72C168C4F2D5
:103820000002904241F00101C1600DDC40F2FF71E5
:10383000C4F20001884215DCB0F1804F2AD040F27A
:103840000041C4F2000123E040F2FF31C4F2010163
:10385000884213DC41F60001C4F20001884219D00D
:10386000002113E040F60001C4F20001884211D0AB
:1038700040F60041C4F200010AE000BF44F200013A
:10388000C4F20101884205D040F20041C4F20101B6
:10389000884206D1816801F00701062904BF002093
:1038A0007047016841F0010101600020704700008D
:1038B00080B590F83C20012A4FF0020200F0C2804F
:1038C00080F83D20D0F800C04FF67772DCF8083061
:1038D00023EA0202CCF808200B684F2B28DC1F2BB0
:1038E00044DD202B45D0302B43D0402B40F0AC8022
:1038F000D1F804E0C968DCF82030DCF8202022F0A0
:103900000102CCF82020DCF8182022F0F00242EA74
:10391000011123F00A0242EA0E02CCF81810CCF88A
:103920002020DCF8081041F0470121F0300180E050
:103930006F2B27DDB3F5005F48D0B3F5805F7AD0F9
:10394000702B40F08180D1E901E3C968DCF80820E0
:1039500043EA0E0322F47F4243EA01211143CCF8EB
:103960000810DCF8081041F0770162E00BB1102B71
:103970006AD1DCF8081021F07001194341F0070109
:1039800057E000BF502B35D0602B5DD1D1F804E05B
:10399000C968DCF82030DCF8202022F01002CCF8D6
:1039A0002020DCF8182022F4704242EA013123F092
:1039B000A00242EA0E12CCF81810CCF82020DCF855
:1039C000081041F0670121F0100132E0D1E901E374
:1039D000C968DCF8082043EA0E0322F47F4243EA78
:1039E00001211143CCF80810DCF8081041F48041A3
:1039F0001FE000BFD1F804E0C968DCF82030DCF833
:103A0000202022F00102CCF82020DCF8182022F03F
:103A1000F00242EA011123F00A0242EA0E02CCF857
:103A20001810CCF82020DCF8081041F0570121F0E4
:103A30002001CCF808100022012180F83D1000215F
:103A400080F83C10104680BD0122F5E7002804BF35
:103A5000012070472DE9F047044690F83D000D46DF
:103A600028B9002084F83C00204600F049F80220E4
:103A700084F83D00206844F2070281689143816028
:103A8000211D02F02DFB20684FF6FF7881688269C6
:103A9000D0F820C0D5E9003ED5E9026A43EA010921
:103AA000AB6922EA080246EA03234FF6FC46B34319
:103AB000D5E9076742EA0A0229691A4342EA06225F
:103AC00042EA01112CF0AA026B6942EA0E0241EAB5
:103AD000073142EA0312C0F80890816102620120B6
:103AE00084F8460084F83E0084F83F0084F84200E1
:103AF00084F8430084F83D000020BDE8F087000012
:103B000080B586B0006840F2FF71C4F200018842BF
:103B10004FF000010591CDE90311CDE9011125DC3C
:103B2000B0F1804F50D040F20041C4F20001884211
:103B300040F09780002043F630010090C4F202016B
:103B40000A6942F002020A610A6902F00202009266
:103B5000009A0090086840F001000860086802219F
:103B600000F0010000900098C02049E040F60001FC
:103B7000C4F20001884249D040F20041C4F2010180
:103B800088426ED1002043F630010090C4F2020159
:103B90004A6942F002024A614A6902F00202009256
:103BA000009A0090086840F004000860086803214B
:103BB00000F0040000900098C02001900020C4F2A2
:103BC000020000F5006043E0002043F63001009061
:103BD000C4F202010A6942F001020A610A6902F0B4
:103BE00001020092009A0090086840F0010008600D
:103BF0000868012100F001000090009848F20200DE
:103C000001900020C4F2020022E000BF002043F631
:103C100030010090C4F202010A6942F004020A6114
:103C20000A6902F004020092009A0090086840F0CD
:103C3000080008600868022100F008000090009861
:103C40004FF4405001900020C4F2020000F54060A3
:103C5000022202920022059101A9CDE90322FFF779
:103C60002DF806B080BD000080B590F83E2090F899
:103C70003F3090F842E090F843C004290AD0B9B927
:103C8000012A4FF0010208BFBEF1010F34D01046E7
:103C900080BD00BF012B4FF0010208BFBCF1010F36
:103CA000F5D1022180F83F1080F8431000681EE033
:103CB000012A4FF0010208BF012BE8D1BEF1010F2C
:103CC000E5D1BCF1010FE2D1022280F83E2080F85C
:103CD0003F2080F8422080F8432091B10068016ABB
:103CE00021F001010162016A41F00101016210212C
:103CF0006FF0100209E000BF022180F83E1080F84A
:103D00004210006801216FF00102036A1A4002624A
:103D1000026A114301620168002241F00101016061
:103D2000104680BD7047000070B504460068C56845
:103D30000669B10716D515F0020113D06FF0020124
:103D40000161012121778069800703D02046FFF7B8
:103D5000E9FF05E0204600F08FF8204600F0EAF980
:103D600000202077700719D515F0040016D02068C0
:103D70006FF00401016102212177806910F4407F16
:103D800004D02046FFF7CEFF06E000BF204600F03B
:103D900073F8204600F0CEF900202077300717D5C1
:103DA00015F0080014D020686FF0080101610421AB
:103DB0002177C069800703D02046FFF7B3FF05E0F5
:103DC000204600F059F8204600F0B4F90020207792
:103DD000F00619D515F0100016D020686FF010010C
:103DE000016108212177C06910F4407F04D020468A
:103DF000FFF798FF06E000BF204600F03DF82046A0
:103E000000F098F900202077F00718BF15F00100A6
:103E100002D1300609D412E020686FF0010101617F
:103E2000204600F013FA300609D515F0800006D0C0
:103E300020686FF0800101612046FFF709FC7006E1
:103E400009D515F0400006D020686FF040010161EF
:103E5000204600F005FAB00658BF70BD15F02000EE
:103E600008D021686FF0200220460A61BDE870404A
:103E7000FFF7F0BB70BD0000704700002DE9F04176
:103E800090F83C30012B04BF0220BDE8F0814FEADE
:103E9000B202032A00F2FC80DFE802F0023E7EBE9E
:103EA000036840F200471C6A1A6A24F0020422F0F8
:103EB00001021A621A46D3F804E052F818CF8E684D
:103EC00043F48065C4F20107BD4244EA060405D10B
:103ED000CE6824F00C0426F0040634430E68BD427C
:103EE00007D1D1E905572EF4407E45EA0E0545EA93
:103EF000070E2CF073073743C3F804E09F614F6847
:103F000009695F631C629F6947F008079F619F69A9
:103F100027F004079F61B1E0036840F200481C6A83
:103F20001A6A24F0200422F010021A621A46D3F80A
:103F300004E052F818CF8F6843F48065C4F201089A
:103F4000454544EA071407D1CF686FF0400624F0D6
:103F5000C00406EA071634430F68454507D1D1E986
:103F600005562EF4406E4EEA850545EA860E2CF481
:103F7000E64646EA0727C3F804E09F614F680969EF
:103F80009F631C629F6947F400679F619F6927F4E4
:103F900080679F6171E000BF036840F200481C6ABF
:103FA0001A6A24F4007422F480721A621A46D3F852
:103FB00004E052F81CCF8F6843F48065C4F2010816
:103FC000454544EA072408D1CF6840F2FF463F0246
:103FD00024F4406427EA060634430F68454507D1B8
:103FE000D1E905562EF4405E4EEA051545EA061E57
:103FF0002CF073063743C3F804E0DF614F680969AA
:10400000DF631C62DF6947F00807DF61DF6927F0C3
:104010000407DF6132E000BF036840F20045D3F8D7
:1040200020C01A6A43F4806722F480521A621A464A
:104030005C6852F81CEFD1F800808E68C4F201056C
:10404000AF4204D14D6924F4804444EA85142CF431
:10405000005747EA06372EF4E64646EA08265C6033
:10406000DE614E6809691E641F62DF6947F40067FC
:10407000DF61DF6927F48067DF6109021368194394
:1040800011600021002280F83C200846BDE8F08144
:104090000121002280F83C200846BDE8F0810000A4
:1040A000002804BF0120704710B5044690F83D0079
:1040B00028B9002084F83C00204600F01FF80220B8
:1040C00084F83D002068211D02F00AF8012084F8E0
:1040D000460084F83E0084F83F0084F8400084F8ED
:1040E000410084F8420084F8430084F8440084F8D6
:1040F000450084F83D00002010BD000081B000683C
:104100000021C4F20101884202D001B0704700BF13
:104110000020009043F64400C4F20200016841F020
:1041200001010160006800F001000090009801B0FA
:10413000704700007047000041B1082910D00429E1
:1041400014BF00F1410200F13F020BE090F83E2065
:10415000012A1CBF01207047022280F83E2013E094
:1041600000F140021278012A1CBF01207047022290
:10417000082907D0042914BF80F8412080F83F2087
:1041800002E000BF80F84020006801F01F0101221A
:10419000036A02FA01F123EA01020262026A114390
:1041A00041F2FF72C4F20002904201620CDC40F264
:1041B000FF71C4F20001884214DCB0F1804F37D0A7
:1041C00040F2004116E000BF40F2FF31C4F20101AD
:1041D000884215DC41F60001C4F20001884227D074
:1041E000002115E040F60001C4F2000188421FD012
:1041F00040F60041C4F20001884219D01FE000BF20
:1042000044F20001C4F20101884211D040F20041A1
:10421000C4F20101884212D1416C40F2004340F4E3
:104220008062C4F2010341F400419A42416406D124
:10423000816801F00701062904BF0020704701686A
:1042400041F001010160002070470000006841F268
:104250000001C4F20001884208BFFEF719BE704792
:104260007047000070B582B0044690F842002028E4
:104270000AD113460A4600294FF0010018BF002B4F
:1042800006D102B070BD00BF022002B070BD00BFF9
:1042900001202063002622206663A262A385666453
:1042A00084F842002168E06B46F2F13C46F2515E30
:1042B00046F27525C0F6000CC0F6000EC0F60005EB
:1042C0000431C0E90FCEC0E91356FEF7A7FC0196F2
:1042D000206801680191416801910199216929B320
:1042E00050E8030F216840F4807041E80302EAB10E
:1042F000206850E8030F216840F4807041E8030211
:10430000A2B1206850E8030F216840F4807041E8B2
:1043100003025AB1206850E8030F216840F480700E
:1043200041E8030212B12068DAE700BF206850E8D4
:10433000050F216840F0010041E80502E2B1206864
:1043400050E8050F216840F0010041E805029AB1EC
:10435000206850E8050F216840F0010041E805029F
:1043600052B1206850E8050F216840F0010041E893
:104370000502002ADAD100BF206850E8050F216845
:1043800040F0400041E80502DAB1206850E8050F2E
:10439000216840F0400041E8050292B1206850E8F1
:1043A000050F216840F0400041E805024AB120684D
:1043B00050E8050F216840F0400041E80502002A5E
:1043C000DAD1206B012839D10020009021680A68D9
:1043D00000924A680092009A51E8031F226841F057
:1043E000100142E80313002B3FF44BAF206850E864
:1043F000030F216840F0100041E8030212B3206867
:1044000050E8030F216840F0100041E80302CAB1F0
:10441000206850E8030F216840F0100041E80302D3
:1044200082B1206850E8030F216840F0100041E895
:104430000302002A4FF00000D8D122E7012002B089
:1044400070BD00BF002002B070BD000080B582B01A
:1044500040F61012C2F2000200219042019101D0F8
:1044600002B080BD40F28C20C2F20000006801A9B9
:1044700003F0CAFB01980028F2D04EF60450CEF2A9
:1044800000004FF080510160BFF34F8FBFF36F8F7B
:1044900002B080BD70470000B0B582B0044600682D
:1044A0000168C368426901F02F05202D03F0200543
:1044B00006D12DB1204602B0BDE8B04002F0B0B840
:1044C0005FEA017C1EBF02F0010E03F4907212EB52
:1044D0000E0255D1226B012A05D111F0100218BF2E
:1044E00013F0100236D10A0622D513F080021FD035
:1044F00094F84110212941D1A168B1F5805F03D121
:104500002169002900F07282216A4A1C226209781E
:104510004160E18C01390A04E1842FD1C16821F0A6
:104520008001C160C16841F04001C16002B0B0BD0E
:10453000490623D513F0400120D0C16821F0400185
:10454000C1602021204684F8411002B0BDE8B0408F
:1045500000F0CABC002101910168019141680191FC
:1045600001994169490600F18F80A18DE28DE38DAB
:10457000002B1CBF891A5FEA01420CD102B0B0BD0A
:10458000CA0718BF13F4807240F038814A0700F15F
:104590003B8140E1206850E8030F226820F49070CE
:1045A00042E80303DBB1206850E8030F226820F4DF
:1045B000907042E8030393B1206850E8030F22682B
:1045C00020F4907042E803034BB1206850E8030FD9
:1045D000226820F4907042E80303002BDAD12068AF
:1045E00050E8050F226820F0010042E80503DBB126
:1045F000206850E8050F226820F0010042E805031A
:1046000093B1206850E8050F226820F0010042E8CD
:1046100005034BB1206850E8050F226820F0010027
:1046200042E80503002BDAD1202084F84200002064
:104630002063206850E8030F226820F0100042E851
:104640000303DBB1206850E8030F226820F010005C
:1046500042E8030393B1206850E8030F226820F07A
:10466000100042E803034BB1206850E8030F2268B2
:1046700020F0100042E80303002BDAD1022289B2B5
:1046800020466263B4E000BFE16B0A68526893B2EF
:10469000002B3FF473AFA58DAB42BFF46FAFE28543
:1046A000C969B1F5807F00F09C8050E8030F216854
:1046B00020F4807041E80302E2B1206850E8030F63
:1046C000216820F4807041E803029AB1206850E824
:1046D000030F216820F4807041E8030252B1206882
:1046E00050E8030F216820F4807041E803020AB10A
:1046F0002068DAE7206850E8050F216820F0010003
:1047000041E80502DAB1206850E8050F216820F081
:10471000010041E8050292B1206850E8050F2168C8
:1047200020F0010041E805024AB1206850E8050F79
:10473000216820F0010041E80502002ADAD1206852
:1047400050E8050F216820F0400041E80502DAB189
:10475000206850E8050F216820F0400041E805027C
:1047600092B1206850E8050F216820F0400041E830
:1047700005024AB1206850E8050F216820F040008A
:1047800041E80502002ADAD1202084F84200002006
:104790002063206850E8030F216820F0100041E8F2
:1047A0000302DAB1206850E8030F216820F01000FE
:1047B00041E8030292B1206850E8030F216820F01D
:1047C000100041E803024AB1206850E8030F216855
:1047D00020F0100041E80302002ADAD1E06BFEF776
:1047E0002FF802206063A08DE18D401A81B220462F
:1047F00002B0BDE8B040FFF729BE00BF626C42F0D6
:10480000010262644A0706D5BEF1000F03D0626C54
:1048100042F0020262648A0706D5BEF1000F03D09F
:10482000626C42F004026264BCF1000F06D555EAE6
:104830000E0203D0626C42F008026264626C002ACD
:104840003FF49CAE11F0200118BF002D03D020468C
:1048500001F0E6FE20684169626C01F0400102F05F
:104860000802891800F0A28050E8030F216820F4A4
:10487000907041E80302C2B3206850E8030F21683A
:1048800020F4907041E803027AB3206850E8030FE7
:10489000216820F4907041E8030232B3206850E8A8
:1048A000030F216820F4907041E80302EAB1206808
:1048B000DAE700BF206850E8050F216820F001000A
:1048C00041E80502DAB1206850E8050F216820F0C0
:1048D000010041E8050292B1206850E8050F216807
:1048E00020F0010041E805024AB1206850E8050FB8
:1048F000216820F0010041E80502002ADAD1206B8E
:10490000012824D1206850E8030F216820F010000E
:1049100041E80302DAB1206850E8030F216820F073
:10492000100041E8030292B1206850E8030F2168AB
:1049300020F0100041E803024AB1206850E8030F5C
:10494000216820F0100041E80302002ADAD120207B
:1049500084F84200002020632068416949063FD561
:1049600050E8050F216820F0400041E805022AB315
:10497000206850E8050F216820F0400041E805025A
:10498000E2B1206850E8050F216820F0400041E8BE
:1049900005029AB1206850E8050F216820F0400018
:1049A00041E8050252B12068DAE700BF2046FFF770
:1049B00071FD0020606402B0B0BD00BFE06B78B153
:1049C00046F26921C0F600010165FDF783FF00286A
:1049D0003FF4D4ADE06B016D02B0BDE8B0400847D4
:1049E000204602B0BDE8B040FFF754BD216A31F85F
:1049F000022B6FF35F22426021628AE5002804BF28
:104A00000120704710B5044690F8410028B90020F5
:104A100084F84000204600F021F8242084F841006A
:104A20002068C16821F40051C160204601F078FE81
:104A30002068016921F490410161416921F02A0156
:104A40004161C16841F40051C160002020216064CF
:104A500084F8411084F84210606310BD2DE9F04FD6
:104A600087B00446006841F20001C4F2010100264B
:104A70008842CDE90566CDE90366029600F088809C
:104A800045F20001C4F20001884240F0EF800026A8
:104A900043F630000196C4F202000169002741F498
:104AA000801101610169C4F2020701F480110191D2
:104AB00001990196016802AD41F0040101600168AD
:104AC00046F2100801F00401019101990196016874
:104AD0004FF0020941F00801016000684FF0030A3D
:104AE00000F00800019001984FF4805002904FF0C0
:104AF000080B07F500602946C4F20208CDE90396C9
:104B0000CDF814A0CDF818B0FEF7D8F80420CDE900
:104B1000020904A880E8400C07F540602946FEF72A
:104B2000CDF840F29855C2F200054FF000674FF4FF
:104B300080692846C5E90087C5E90266C5E904968B
:104B4000C5E90666C5E90866FDF7B6FF002818BF87
:104B5000FDF742FEE563AC6340F2F85508F1A800AA
:104B6000C2F200054021C5E9000705F1080080E810
:104B700042022846C5E90566C5E907666E62FDF78B
:104B80009BFF00284FF0350618BFFDF725FE63E0B8
:104B900043F630000196C4F20200416946F2100863
:104BA00041F0100141614169C4F2020801F01001B5
:104BB000019101990196016841F0010101600068CD
:104BC00002A900F00100019001984FF4C06002902A
:104BD0000220CDE90306032005900720069000205F
:104BE000C4F20200FEF76AF840F2586508F58660E4
:104BF000C2F200054FF000674FF48069C5E9000775
:104C00002846C5E90266C5E90496C5E90666C5E910
:104C10000866FDF751FF002818BFFDF7DDFDE563CD
:104C2000AC6340F2B86508F59560C2F2000540211A
:104C3000C5E9000705F10800002280E806022846C1
:104C4000C5E90522C5E907226A62FDF735FF4FF085
:104C5000250608B1FDF7C0FD304605210022A563F9
:104C6000AC63FEF7CFF93046FEF7BCF907B0BDE8FC
:104C7000F08F000070B582B0044690F84200202802
:104C80000AD113460A4600294FF0010018BF002B35
:104C900006D102B070BD00BF022002B070BD00BFDF
:104CA000002622202663A262A385666484F842005F
:104CB0002168E06B46F2F13C46F2515E46F2752502
:104CC000C0F6000CC0F6000EC0F600050431C0E9C5
:104CD0000FCEC0E91356FDF7A1FF019620680168C9
:104CE0000191416801910199216929B350E8030FAD
:104CF000216840F4807041E80302EAB1206850E87E
:104D0000030F216840F4807041E80302A2B12068DB
:104D100050E8030F216840F4807041E803025AB163
:104D2000206850E8030F216840F4807041E80302D6
:104D300012B12068DAE700BF206850E8050F21684B
:104D400040F0010041E80502E2B1206850E8050F9B
:104D5000216840F0010041E805029AB1206850E85E
:104D6000050F216840F0010041E8050252B12068BA
:104D700050E8050F216840F0010041E80502002AD3
:104D8000DAD100BF206850E8050F216840F04000EC
:104D900041E80502DAB1206850E8050F216840F0CB
:104DA000400041E8050292B1206850E8050F2168F3
:104DB00040F0400041E805024AB1206850E8050F84
:104DC000216840F0400041E80502002ADAD10020C5
:104DD00002B070BD80B582B040F65812C2F2000237
:104DE00000219042019101D002B080BD40F27020BC
:104DF000C2F20000006801A902F006FF0198002835
:104E0000F2D04EF60450CEF200004FF08051016017
:104E1000BFF34F8FBFF36F8F02B080BD70470000AC
:104E200070B5044690F8410020281CBF022070BDD8
:104E300000294FF0010553D01346002A50D0002519
:104E400021202162A384E384656484F841002668FC
:104E5000A06B46F2752246F2695C46F2196EC0F606
:104E60000002C0F6000CC0F6000EC0E91325321D8A
:104E7000C0E90FCEFDF7D2FE20686FF0400140F888
:104E8000141B50E8000F216840F0800041E8050243
:104E900032B300BF206850E8050F216840F0800061
:104EA00041E80502F2B1206850E8050F216840F0A2
:104EB000800041E80502AAB1206850E8050F21688A
:104EC00040F0800041E8050262B1206850E8050F1B
:104ED000216840F0800041E80502002ADAD100256F
:104EE000284670BD002070BD40F61011C2F20001CE
:104EF000884218BF704741F29410C2F2000001F0DE
:104F000095B9000070470000FEE7000080B582B050
:104F1000002043F630010190C4F202010A6842F415
:104F200080020A600A6802F480020192019A0090ED
:104F30000868002240F4001008600868052100F4A9
:104F40000010009000980B20FEF75CF80B20FEF795
:104F500049F82F2005210022FEF754F82F20FEF7F4
:104F600041F83A2005210022FEF74CF83A20FEF7DE
:104F700039F8462005210022FEF744F8462002B009
:104F8000BDE88040FEF72EB8B0B582B045F6E570BA
:104F90004AF21442C0F60000C0F60002002101F0FF
:104FA00071FD40F29451C2F20001086019204AF2EA
:104FB000384440F28C25009046F61D10C0F60004DF
:104FC000C2F20005C0F6000021464FF480720023B3
:104FD000019503F059FB40F28820C2F200000190D5
:104FE00045F651201825C0F600003CA14FF4007290
:104FF0000023009503F048FB40F27820C2F2000045
:10500000019045F21960C0F6000039A14FF480729A
:105010000023009503F038FB40F27C20C2F2000030
:10502000019045F22170C0F6000034A14FF4807267
:105030000023009503F028FB40F28020C2F200001C
:10504000019045F63100C0F600002FA14FF48072A8
:105050000023009503F018FB40F28420C2F2000008
:10506000019045F64110C0F600002AA14FF480726D
:105070000023009503F008FB40F26C20C2F2000010
:10508000019042F27D60C0F6000025A14FF48072CD
:105090000023009503F0F8FA40F29020C2F20000DD
:1050A000019046F67510C0F6000021464FF480725C
:1050B0000023009503F0E8FA40F2702442F2F17008
:1050C000C2F20004C0F6000019A14FF48072002360
:1050D0000095019403F0D8FA02B0B0BD4D6F746F23
:1050E00072504944546573745F5461736B000000DF
:1050F0004D6F746F315F5461736B00004D6F746F4F
:10510000325F5461736B00004D6F746F335F546195
:10511000736B00004D6F746F345F5461736B0000EC
:10512000436861737369735F5461736B00000000BF
:105130004779726F5F5461736B0000002DE9F04393
:1051400087B0002743F6300006970197C4F20200AB
:10515000016840F2004841F0100101600168C4F2AA
:10516000020801F01001019101990197016808F509
:10517000406541F0800101600168002201F080017A
:1051800001910199019701686C2641F001010160CC
:10519000016801F00101019101990197016841F055
:1051A00002010160016801F002010191019901977A
:1051B000016841F008010160016801F008010191F6
:1051C00001990197016841F00401016000686C21B8
:1051D00000F00400019001982846FDF74DFE40467E
:1051E00043F260010022FDF747FE029602AE012461
:1051F0004FF00209284631460394CDE90497FDF7A4
:105200005DFD4FF4835002A981E81102404631460A
:105210000597FDF753FD4FF4005002A991C1404698
:1052200031460597FDF74AFD07B0BDE8F083000061
:10523000B0B598B0002540F21870C4F20105002105
:10524000C2F20000A72263231191CDE90F11CDE92D
:105250000D11CDE90B11CDE90911CDE90711CDE90A
:105260000511CDE90311CDE90111C0E90052C0E9F2
:105270000213C0E904118161FEF712FF002818BF74
:10528000FDF7AAFA40F21870C2F2000010A9FEF76A
:1052900009FA002818BFFDF79FFA60200990002046
:1052A000CDE90A00CDE90C00CDE90E0040F21870FE
:1052B000C2F2000009A90022FEF7E0FD002818BF95
:1052C000FDF78AFA40F21870C2F2000009A9042220
:1052D000FEF7D4FD002818BFFDF77EFA40F21870E3
:1052E000C2F2000009A90822FEF7C8FD002818BF75
:1052F000FDF772FA40F21870C2F2000009A90C2200
:10530000FEF7BCFD002818BFFDF766FA40F21874DE
:1053100000204FF40051C2F200040590CDE90300D3
:10532000CDE901000691089001A92046FEF794F905
:10533000002818BFFDF750FA2068A84202D018B024
:10534000B0BD00BF002043F630011390C4F202014B
:105350000A6842F010020A60096801F01001139116
:1053600013994FF4D44113910221CDE914101690F2
:105370000120179005F5883013A9FDF79FFC18B0A0
:10538000B0BD000080B58CB040F260700021C2F268
:1053900000004FF08042C0E9002103224FF0FF33AC
:1053A000CDE903210122CDE90011C0E90213016119
:1053B0008161CDE90521CDE90711CDE909210B91E5
:1053C00003A9FEF743FB002818BFFDF705FA40F2DA
:1053D0006070C2F200006946FEF764F9002818BF49
:1053E000FDF7FAF90CB080BD80B58CB040F2A87022
:1053F00040F200420021C2F20000C4F20002C0E903
:10540000002103224FF6FF73CDE903210122CDE9EC
:105410000011C0E9021301618161CDE90521CDE9E7
:105420000711CDE909210B9103A9FEF70FFB002815
:1054300018BFFDF7D1F940F2A870C2F2000069462A
:10544000FEF730F9002818BFFDF7C6F90CB080BD93
:1054500080B58CB040F2F07040F600020021C2F23C
:105460000000C4F20002C0E9002103224FF6FF73DE
:10547000CDE903210122CDE90011C0E90213016148
:105480008161CDE90521CDE90711CDE909210B9114
:1054900003A9FEF7DBFA002818BFFDF79DF940F2DB
:1054A000F070C2F200006946FEF7FCF8002818BF51
:1054B000FDF792F90CB080BD80B586B040F638009B
:1054C00040F600420021C2F20000C4F20002532361
:1054D00042F20F7C0591CDE90311CDE90011C0E93D
:1054E0000023C0E9021C01618161FEF737F9002841
:1054F00018BFFDF771F94FF48050029040F6380064
:10550000C2F2000002A9FEF7D3F9002818BFFDF788
:1055100063F940F63800C2F200006946FEF7C2F8AF
:10552000002818BFFDF758F906B080BD10B58CB043
:1055300040F6C80040F200410024C2F20000C4F26C
:105540000101C0E900140321CDE9031401214FF644
:10555000FF72CDE90514CDE9091403A9CDE9004492
:10556000C0E90242C0E904448461CDE907440B94D8
:10557000FEF76CFA002818BFFDF72EF940F6C800B8
:10558000C2F200006946CDE90044FEF78BF800281E
:1055900018BFFDF721F90CB010BD000080B540F632
:1055A000581045F20001C2F20000C4F200010023CD
:1055B0004FF00C0C4FF4E13280E80E00C0E90333E9
:1055C000C0E905C3C361FFF719FA002808BF80BD11
:1055D000BDE88040FDF700B980B540F6101041F2FB
:1055E0000001C2F20000C4F2010100234FF00C0CD4
:1055F0004FF4E13280E80E00C0E90333C0E905C38F
:10560000C361FFF7FBF9002808BF80BDBDE88040FB
:10561000FDF7E2B8FEE7000082B040F20C0BC2F2E8
:10562000000B584600F020FADBF828009FED341AF2
:10563000B7EE080AF2EE040A00F07AFBDBF8280065
:105640009FED300ADFED300A00F0E6FBDBF82800C2
:105650009FED2E0A00F0C0FBDBF828009FED2C0A1E
:10566000DFED2C0A00F0AAFBDBF828009FED2A0AE8
:1056700000F0E0FBDBF82800002100F0B9FB03F0AC
:105680007FF89FED1D0B9FED258A40F21C28C2F28A
:1056900000085AEC109B019001A80A2102F03CFA84
:1056A0005846FDF79DF8BBF9240000EE100AB8EE4D
:1056B000C00A20EE080A8BED060A04F09FFA0546A0
:1056C000D8F810000E4604F00FFD07460C46284699
:1056D00031464A46534604F0E5FA3A46234604F07A
:1056E0003BF804F007F898ED000AC8F81000584697
:1056F00000F0F6FAD0E700BFE6255A4D32CDC33FA1
:10570000000000000000C8C20000C8420000C843FA
:10571000000048C2000048420AD7233C00009640DF
:1057200082B0022002F0B8F940F2380BC2F2000B4E
:10573000584600F099F9DBF828009FED351AB7EECE
:10574000080AF2EE040A00F0F3FADBF828009FEDF5
:10575000310ADFED310A00F05FFBDBF828009FED36
:105760002F0A00F039FBDBF828009FED2D0ADFED52
:105770002D0A00F023FBDBF828009FED2B0A00F038
:1057800059FBDBF82800002100F032FB02F0F8FFA3
:105790009FED1D0B9FED258A40F21C28C2F20008E8
:1057A0005AEC109B019000BF01A80A2102F0B4F945
:1057B0005846FDF715F8BBF9240000EE100AB8EEC4
:1057C000C00A20EE080A8BED060A04F017FA054617
:1057D000D8F814000E4604F087FC07460C4628460D
:1057E00031464A46534604F05DFA3A46234603F0F2
:1057F000B3FF03F07FFF98ED010AC8F81400584684
:1058000000F06EFAD0E700BFE6255A4D32CDC33F17
:10581000000000000000C8C20000C8420000C843E9
:10582000000048C2000048420AD7233C00009640CE
:1058300082B0042002F030F940F2640BC2F2000B97
:10584000584600F011F9DBF828009FED351AB7EE45
:10585000080AF2EE040A00F06BFADBF828009FED6C
:10586000310ADFED310A00F0D7FADBF828009FEDAE
:105870002F0A00F0B1FADBF828009FED2D0ADFEDCA
:105880002D0A00F09BFADBF828009FED2B0A00F0B0
:10589000D1FADBF82800002100F0AAFA02F070FF2C
:1058A0009FED1D0B9FED258A40F21C28C2F20008D7
:1058B0005AEC109B019000BF01A80A2102F02CF9BC
:1058C0005846FCF78DFFBBF9240000EE100AB8EE35
:1058D000C00A20EE080A8BED060A04F08FF905468F
:1058E000D8F818000E4604F0FFFB07460C46284681
:1058F00031464A46534604F0D5F93A46234603F06A
:105900002BFF03F0F7FE98ED020AC8F8180058467E
:1059100000F0E6F9D0E700BFE6255A4D32CDC33F8F
:10592000000000000000C8C20000C8420000C843D8
:10593000000048C2000048420AD7233C00009640BD
:1059400082B0062002F0A8F840F2900BC2F2000BE1
:10595000584600F089F8DBF828009FED351AB7EEBD
:10596000080AF2EE040A00F0E3F9DBF828009FEDE4
:10597000310ADFED310A00F04FFADBF828009FED25
:105980002F0A00F029FADBF828009FED2D0ADFED41
:105990002D0A00F013FADBF828009FED2B0A00F027
:1059A00049FADBF82800002100F022FA02F0E8FEB4
:1059B0009FED1D0B9FED258A40F21C28C2F20008C6
:1059C0005AEC109B019000BF01A80A2102F0A4F834
:1059D0005846FCF705FFBBF9240000EE100AB8EEAC
:1059E000C00A20EE080A8BED060A04F007F9054606
:1059F000D8F81C000E4604F077FB07460C462846F4
:105A000031464A46534604F04DF93A46234603F0E0
:105A1000A3FE03F06FFE98ED030AC8F81C00584679
:105A200000F05EF9D0E700BFE6255A4D32CDC33F06
:105A3000000000000000C8C20000C8420000C843C7
:105A4000000048C2000048420AD7233C00009640AC
:105A50000A2002F021F840F63800C2F20000FDF7FB
:105A6000D1FE00BFFEE7000010B50021044681848E
:105A7000C0E90611406921620021FEF7F5F860696E
:105A80000421FEF7F1F8D4E90301FEF755FB206885
:105A900021890022FDF7F0F9606861890022BDE8E4
:105AA0001040FDF7E9B90000FEE70000000000002B
:105AB00070B52DED088B00284ED0044690F84000BC
:105AC00030EEC09AB0EE408A0028B0EEC90AC4EDAC
:105AD000030A47D094ED0D1A9FED7F2AB4EE410AD8
